:020000040800F2
:10000000E01400209D010008711F0008F914000889
:10001000291E0008850A0008855700080000000016
:10002000000000000000000000000000993B0008F4
:100030009D0B000800000000372F0008FF3F00085C
:10004000B7010008B7010008B7010008B7010008B0
:10005000B7010008B7010008B7010008B7010008A0
:10006000B7010008B7010008B7010008B701000890
:10007000B7010008B7010008B7010008B701000880
:10008000B7010008B7010008B7010008B701000870
:10009000B7010008B7010008B701000811100008F7
:1000A000B7010008B7010008B7010008B701000850
:1000B000B70100088D400008B7010008B70100082B
:1000C000B7010008B7010008B7010008B701000830
:1000D000B7010008B7010008B70100084154000843
:1000E000B7010008B7010008B7010008B701000810
:1000F000B7010008B7010008B7010008B701000800
:10010000B7010008B7010008B7010008B7010008EF
:10011000B7010008B7010008B7010008B7010008DF
:10012000B7010008B7010008B7010008B7010008CF
:10013000B7010008B7010008B7010008B7010008BF
:10014000B7010008B7010008B7010008B7010008AF
:10015000B7010008B7010008B7010008B70100089F
:10016000B7010008B7010008B7010008B70100088F
:10017000B7010008B7010008B7010008B70100087F
:10018000B7010008B7010008DFF80CD000F032FB1F
:1001900000480047A9670008E0140020064880478F
:1001A00006480047FEE7FEE7FEE7FEE7FEE7FEE75C
:1001B000FEE7FEE7FEE7FEE70140000889010008D0
:1001C00040EA01039B0703D009E008C9121F08C0D9
:1001D000042AFAD203E011F8013B00F8013B521E59
:1001E000F9D27047D2B201E000F8012B491EFBD2D0
:1001F00070470022F6E710B513460A460446194632
:10020000FFF7F0FF204610BD421E12F8013F002B01
:10021000FBD111F8013B02F8013B002BF9D17047EB
:1002200030B505462A460B4612F8010B13F8014B70
:1002300008B1A042F8D01CB1002802D06D1CF1E733
:10024000284630BD421C10F8011B0029FBD1801A42
:1002500070472DE9FE4F804681EA0300C00F0C462F
:10026000009021F0004123F00045B8EB0200A941C5
:1002700005D24046214690461C460B46024623F0D6
:100280000040104347D0270DC7F30A00C3F30A51BB
:100290000290401A019040286BDAC3F3130040F437
:1002A000801B0098924620B10023D2EB030A63EB37
:1002B0000B0B01985946C0F14002504600F0F3F98B
:1002C00006460D4650465946019A00F00BFA10EBCF
:1002D00008006141002487EA115284EAE7731A4357
:1002E00040D0009A62B3019A012A4FEA075215DC06
:1002F000001B61EB02014FF0004202EA0752CDE918
:100300000042001C41F5801132462B4600F00BFAEA
:1003100003B0BDE8F08F40462146F9E7001B61EBD2
:100320000201001C41F5801300185B412018A2F562
:10033000001747EB030140EAD570B6196D4111E093
:100340006D084FEA360645EAC0754FEA0752001BB2
:1003500061EB0201001C41F5801149084FEA3000B1
:100360000019514132462B4603B0BDE8F04F00F072
:10037000CBB90098012240000023D0EB020263EBCE
:10038000E073009821464FEAE074B8EB000061EB9F
:100390000401E9E783F000435BE781F0004158E79F
:1003A0002DE9FE4F81EA030404F0004421F00041EE
:1003B00000944FF0000B23F0004350EA01045ED09C
:1003C00052EA03045BD0C3F30A54C1F30A552C4428
:1003D000A4F2F3340194A0FB0254C1F3130141F4DD
:1003E0008011C3F3130343F4801301FB024400FBA9
:1003F000034E840A970A44EA815447EA8357A4FBD0
:10040000076802958D0A05FB07854FEA932C04FBCC
:100410000C542705029D4FEA065847EA1637B5EBFC
:1004200008056EEB070C870E920E47EA811742EA29
:100430008312A7FB0201B6EB0B0164EB00042B0D4A
:1004400043EA0C335E1844EB1C50DA465146E7FB96
:100450000201C5F313044FEA0B3343EA14534FEA86
:100460000432019C43EA0603A4F10C040294009CAC
:10047000CDE900B400F057F903B0BDE8F08F0020DB
:100480000146F9E72DE9F04D81EA030404F0004B41
:1004900021F0004514464FF0000A23F0004150EAD5
:1004A000050220D054EA01021DD0C5F30A570246C6
:1004B000C5F31303C1F31300C1F30A5640F48015CA
:1004C00043F48013A7EB0608101BD64608F2FD384C
:1004D00073EB050002D308F1010801E092185B41BB
:1004E000B8F1000F03DA00200146BDE8F08D0020CE
:1004F0004FF48011064684460EE0171B73EB050788
:1005000005D3121B63EB050306434CEA010C4908B3
:100510004FEA300092185B4150EA0107EDD152EAF0
:10052000030012D082EA040083EA0501084305D0E3
:10053000101BAB4106D20122002306E000224FF03F
:10054000004302E06FF0010253101AEB06004CEB7F
:10055000085110EB0A0041EB0B01BDE8F04D00F033
:10056000D3B80EB5C10F80EAE0700844CA07002175
:1005700040F233438DE80E000A460B4600F0D3F8F4
:1005800003B000BDC1F30A5210B5C1F3130140F22C
:10059000FF3341F480119A4201DA002010BD40F28D
:1005A00033439A42A2F2334203DC524200F08AF80B
:1005B00010BD904010BD000030B5041E71F1000464
:1005C00004DB4FF00044404264EB0101141E73F160
:1005D000000405DB1C464FF00043524263EB04036A
:1005E0008B4208BF824230BD30B5041E71F1000459
:1005F00004DB4FF00044404264EB0101141E73F130
:10060000000405DB1C464FF00043524263EB040339
:10061000994208BF904230BD30B50B4601460020DC
:100620002022012409E021FA02F59D4205D303FAB4
:1006300002F5491B04FA02F52844151EA2F1010235
:10064000F1DC30BD2DE9F05F0546002092469B4667
:1006500088460646814640241BE0284641464746D8
:10066000224600F02FF853465A46C01A914110D343
:1006700011461846224600F016F82D1A67EB0108BD
:100680004F4622460120002100F00DF817EB00092B
:100690004E41201EA4F10104DFDC484631462A46C3
:1006A0004346BDE8F09F202A04DB203A00FA02F11D
:1006B000002070479140C2F1200320FA03F3194350
:1006C00090407047202A04DB203A21FA02F00021F2
:1006D000704721FA02F3D040C2F120029140084352
:1006E00019467047202A06DBCB17203A41FA02F060
:1006F00043EAE07306E041FA02F3D040C2F120027F
:10070000914008431946704710B5141E73F1000458
:1007100008DA401C41F1000192185B411A4301D1F3
:1007200020F0010010BD2DE9F04D92469B4611B11D
:10073000B1FA81F202E0B0FA80F220329046FFF77F
:10074000B2FF04460F4640EA0A0041EA0B01534655
:100750005A46084313D0114653EA010019D0C8F194
:1007600040025046FFF7AEFF05460E46504659463A
:100770004246FFF798FF084305D0012004E02046D9
:100780003946BDE8F08D0020054346EAE0762C436B
:1007900037430A986305E40AA0EB08000022FD0A2B
:1007A00044EA47540A3002D500200146E9E7010532
:1007B00010196941DDE9084500196941BDE8F04DAE
:1007C000A2E7C1F30A52C1F3130140F2FF3341F42F
:1007D00080119A4202DA00200146704740F233430A
:1007E0009A42A2F2334202DC5242FFF76BBFFFF79C
:1007F0005ABF0000064C074D06E0E06840F00103D8
:1008000094E8070098471034AC42F6D3FFF7C0FCD9
:100810006C7700088C7700082DE9F04D00231A460C
:100820001B1A8A4103DB00200146BDE8F08DC1F3AD
:100830000A52C1F3130141F480154FF0000BD107A8
:1008400002D100186D41521E0027044640F2FF11EC
:10085000384601EB620A3E468046024600204FF4CD
:100860008011FFF72FFFC2197141BB1846EB010041
:10087000B4EB030C75EB000C04D3E41A65EB000534
:1008800017460E46241908F101006D4180463428B0
:10089000E3DDF91946EB0600091BA84103D24FF02E
:1008A000FF32134601E0002213461BEB070046EB24
:1008B0000A51BDE8F04DFFF727BF70B58C1810F84E
:1008C000015B15F0070301D110F8013B2A1106D195
:1008D00010F8012B03E010F8016B01F8016B5B1EAF
:1008E000F9D12B0705D40023521E0DD401F8013B8A
:1008F000FAE710F8013BCB1A921C03E013F8015BF6
:1009000001F8015B521EF9D5A142D8D3002070BD79
:1009100010B500F01BFE10BD2DE9F04107460D4655
:1009200016464FF00008002400F098FEA02000F0CA
:10093000FBFE00F0D3FE38B100F0B0FE12A004F0D0
:10094000D7FF601EBDE8F081384600F0EDFE0020C4
:1009500000F0D4FD00F082FEA12000F0E5FE0020B2
:1009600000F0CCFD06E000F011FE2855002000F05C
:10097000C5FD641CB442F6DB012000F0BFFD00F0B1
:100980008DFE4046DEE70000B7A2CBCDC6F7BCFE29
:10099000B5D8D6B7CAA7B0DC2E2E2E0D0A0000009F
:1009A0002DE9F04707468846914600253C4600263B
:1009B00041E03EB1E11704EB5171C910A4EBC10154
:1009C000002923D100F06AFE012005F083FE00F02B
:1009D00045FEA02000F0A8FE00F080FE40B100F02F
:1009E0005DFE18A004F084FF4FF0FF30BDE8F087F3
:1009F000204600F099FE00F071FE38B100F04EFE86
:100A000016A004F075FF4FF0FF30EFE718F805006F
:100A100000F08AFE00F062FE38B100F03FFE14A044
:100A200004F066FF4FF0FF30E0E7681CC5B2601CC1
:100A3000C4B2701CC6B24E45BBDB00F02FFE284688
:100A4000D4E70000B7A2CBCDC6F7BCFEB5D8D6B769
:100A5000CAA7B0DC2E2E2E0D0A000000B7A2CBCD07
:100A6000D7D6B5D8D6B7CAA7B0DC2E2E2E0D0A0021
:100A7000B7A2CBCDCAFDBEDDCAA7B0DC2E2E2E0D8F
:100A80000A00000000BFFEE72DE9F0410746884656
:100A900015460421052000F05AF80021012004F039
:100AA000AFFE80210A2003F099F8002405E0395DAB
:100AB000092004F0A5FE601CC4B24445F7DB032105
:100AC000012004F09DFEFF2400BF052002F0D4FEAB
:100AD0000646601EC4B21CB106F004000028F4D023
:100AE000222002F0C9FE2870212002F0C5FE6870A5
:100AF000BDE8F0812DE9F04104460E46E568002787
:100B0000B84605E06D00781C0746202800DD03E0AC
:100B10006068281AB042F5D300BF202F03DD4FF0E4
:100B2000FF30BDE8F081E068A8420ED2284605F00B
:100B3000BDFE80464046D4E90012FFF741FB206825
:100B400005F00AFEC4F80080E5600020E9E770B512
:100B500005460C46284602F08FFE064626EA0401AA
:100B6000284604F04DFE70BD10B50121402002F072
:100B70009FFB012007490871002088714FF4007025
:100B800008600120C87102204871034800F01CFB76
:100B900010BD0000580C002000180240704770B5CE
:100BA000044620680568284605F0D6FD206805F053
:100BB000D3FD0020206070BD10B5414840780A2167
:100BC00090FBF1F01030C4B223463E4A06210020CB
:100BD00003F05AF93A4840780A2190FBF1F201FB00
:100BE00012001030C4B22346364A0621082003F012
:100BF0004BF93C23334A0621102003F045F93048D5
:100C000080780A2190FBF1F01030C4B223462D4ABF
:100C10000621182003F038F9294880780A2190FB32
:100C2000F1F201FB12001030C4B22346254A06211E
:100C3000202003F029F90023224A0621282003F06E
:100C400023F9214800780A2190FBF1F01030C4B25A
:100C500023461C4A0621302003F016F91A48007872
:100C60000A2190FBF1F201FB12001030C4B22346BE
:100C7000144A0621382003F007F91A23114A0621E5
:100C8000402003F001F9104840780A2190FBF1F070
:100C90001030C4B223460B4A0621482003F0F4F872
:100CA000094840780A2190FBF1F201FB1200103054
:100CB000C4B22346034A0621502003F0E5F810BDD4
:100CC000A80C002000710008AC0C002010B5802199
:100CD0000348FFF78EFA00200249087010BD00009B
:100CE000BC0C00207C0B002010B506A106A000F073
:100CF0004FF8C82005F0CAFC07A108A000F048F88A
:100D000010BD00004F4B000041542B4349504D4F44
:100D100044453D310D0A00003E00000041542B4384
:100D2000495053454E440D0A0000000010B54FF4E1
:100D3000FA7005F0ABFC00BF1448008800F04000DA
:100D40000028F9D02B201149091D08800F2005F03B
:100D50009DFC00BF0D48008800F040000028F9D03D
:100D60002B200A49091D08800F2005F08FFC00BFC9
:100D70000648008800F040000028F9D02B200349E5
:100D8000091D0880322005F081FC10BD004800409C
:100D90002DE9F04104460D46322620480078401CDB
:100DA0001E49087080211E48FFF723FA00201D49C4
:100DB00008702046FFF746FA07463A4621461A4889
:100DC00006F064F82046FFF73DFA07463A4621460A
:100DD000164806F05BF81AE000F03CF8A0B9294686
:100DE0000F48FFF71DFA40B180210D48FFF701FAC7
:100DF00000200C490870BDE8F08180210848FFF709
:100E0000F8F90020074908700A2005F03FFC30007F
:100E1000A6F10101CEB2DFD10120ECE7880B002062
:100E2000BC0C00207C0B002000480040001001405A
:100E300070B504460D46FFF749FFFFF755FF2A46F8
:100E40002146034806F022F8FFF770FF70BD00004E
:100E5000004800400A48007808B901207047084857
:100E6000007808490978884203D1002004490870B5
:100E7000F4E703480078034908700120EEE700001A
:100E80007C0B00207D0B002010B500203849087035
:100E900008E037480078142800DD10BD4FF4FA70E0
:100EA00005F0F4FB33A134A0FFF772FF0028F0D166
:100EB0002F49087008E02E480078142800DDECE780
:100EC0004FF4FA7005F0E2FB2AA12DA0FFF760FFB6
:100ED0000028F0D12649087008E025480078142839
:100EE00000DDDAE74FF4FA7005F0D0FB21A128A06D
:100EF000FFF74EFF0028F0D11D49087008E01C489C
:100F00000078142800DDC8E74FF4FA7005F0BEFB46
:100F100018A122A0FFF73CFF0028F0D11449087067
:100F200008E013480078142800DDB6E74FF4FA70A3
:100F300005F0ACFB1CA120A0FFF72AFF0028F0D190
:100F40000B49087008E00A480078142800DDA4E77F
:100F50004FF4FA7005F09AFB06A11EA0FFF718FFE8
:100F60000028F0D125A1294805F0A4FF00BF94E78F
:100F7000880B00204F4B000041540D0A0000000078
:100F800041542B43574D4F44453D310D0A0000005D
:100F900041542B5253540D0A0000000041542B437E
:100FA000494653520D0A00005749464920434F4EC7
:100FB0004E4543540000000041542B43574A4150D2
:100FC0003D225750222C22313233343536373822E5
:100FD0000D0A000041542B43495053544152543D93
:100FE00022544350222C223138332E3233302E34C7
:100FF000302E3339222C3837360D0A0057494649EE
:1010000020496E6974204F4B0D0A0000001001400A
:1010100010B500243E48008820F001003C490880BB
:101020003C48006820F480703A4908603A480078EB
:1010300000B15BE00020394908603948006818B108
:101040003848006800B151E03748006900F480700A
:10105000002842D10120304908700BE0012005F042
:1010600015FB601C04460C2804DD6FF00A002B49B8
:10107000086037E02C48006900F480700028EDD04B
:10108000062C04DA6FF00B00244908602AE00024E3
:101090000BE0012005F0FAFA601C0446082804DD84
:1010A0006FF00C001D4908601CE01F48006900F447
:1010B00080700028EDD1042C04DA6FF00D00174980
:1010C00008600FE0002400F0FBF81448006800B14D
:1010D00008E000201149086003E06FF009000F49A3
:1010E000086000BF00200C49087000BF0948143098
:1010F000006840F480700749143108600BA004F0C8
:10110000F7FB0348008840F001000149088010BD4A
:101110000C040040003C0140980B0020600C0020B3
:10112000640C0020680C0020000002404E45430D76
:101130000A000000002123498279002A3AD00A4699
:10114000126803689A430B461A600A1D1268036806
:101150009A430B1D1A60027911440A6803681A4306
:101160000A60184A0832126803689A43154B08331C
:101170001A601A1D126803689A43124B0C331A60E6
:101180004279102A0ED11A1F126803681A430D4BB8
:1011900008331A601A1D126803681A43094B0C338E
:1011A0001A600DE00749427911440A6803681A433E
:1011B0000A6005E0027911440A6803689A430A60EC
:1011C00070470000003C0140F0B50A4600210023B2
:1011D000002400BF3DE0012505FA01F3156805EA8A
:1011E00003049C4234D105684F000326BE40B5433A
:1011F000056015794E00B5400668354305601579E0
:10120000012D02D01579022D16D185684F000326D5
:10121000BE40B543856055794E00B540866835437C
:101220008560456801268E40B543456045689679DE
:101230008E40B6B235434560C5684F000326BE40B8
:10124000B543C560D5794E00B540C6683543C56025
:10125000491C1029BFD3F0BDF0B5002300244D0771
:10126000ED0E02FA05F3CE1000F1200555F82650D8
:101270004E07F70E0F26BE40B543CF1000F12006F3
:1012800046F82750CE1000F1200555F8265045EAC3
:101290000304CE1000F1200545F82640F0BD0246BB
:1012A000002013690B400BB1012000E000207047C3
:1012B000418370470183704742694A4042617047E9
:1012C00070B5002500248848006900F4807000286B
:1012D0007DD1864908602EE00CE0012005F00AFA75
:1012E000681C0546B0F5167F04DD6FF014008049D8
:1012F000086070BD7C48006900F480700028ECD064
:10130000002510E0012005F0F5F9681C0546B0F550
:10131000167F08DDC4F10701012088407349096880
:101320000843724908607048006900F48070002822
:10133000E8D10025641C082CCEDB00244AE00CE038
:10134000012005F0D7F9681C0546B0F5167F04DDCD
:101350006FF0170066490860CBE76348006900F446
:1013600080700028ECD02D2D04DA6FF01800604951
:101370000860BEE7002514E0012005F0BBF9681CF9
:101380000546B0F5167F0CDDC4F107010120884049
:1013900056490968084020B16FF01E0054490860A2
:1013A000A7E75148006900F480700028E4D1B5F542
:1013B000167F0DDAC4F10701012088404B49096806
:1013C000084028B96FF01F004949086091E788E09C
:1013D0000025641C082CB2DB00204649086000246C
:1013E0002EE00CE0012005F085F9681C0546B0F5FB
:1013F000167F04DD6FF028003D49086079E73A4820
:10140000006900F480700028ECD0002510E0012075
:1014100005F070F9681C0546B0F5167F08DDC4F1CB
:1014200007010120884033490968084331490860B1
:101430002D48006900F480700028E8D10025641C64
:10144000082CCEDB00244AE00CE0012005F052F924
:10145000681C0546B0F5167F04DD6FF02B002449AB
:10146000086046E72048006900F480700028ECD04E
:10147000B5F5C87F04DA6FF02C001D49086038E725
:10148000002514E0012005F035F9681C0546B0F58B
:10149000167F0CDDC4F10701012088401549096859
:1014A000084020B16FF02D001149086021E70E4877
:1014B000006900F480700028E4D1B5F5167F0CDADD
:1014C000C4F10701012088400A490968084020B991
:1014D0006FF02E00064908600BE70025641C082CFD
:1014E000B2DB00BF05E7000000000240640C0020F2
:1014F000600C0020680C002000BFFEE710B5044619
:1015000000F090F84FF480710F48FFF7D1FE0520EE
:1015100005F0F0F82CB14FF400710B48FFF7CAFE4C
:1015200004E04FF400710848FFF7C2FE4FF48071E9
:101530000548FFF7BFFE052005F0DCF84FF4807189
:101540000148FFF7B5FE10BD000402401CB50121A3
:10155000022001F0ADFE01208DF8040000208DF87E
:10156000060001208DF8070003208DF80500000219
:10157000009069460448FFF727FE4FF44071024887
:10158000FFF798FE1CBD00000004024070B5002566
:1015900000F034F84FF480711748FFF789FE0520FA
:1015A00005F0A8F8002423E04FF480711248FFF7FB
:1015B00081FE052005F09EF84FF400710E48FFF7FC
:1015C0006EFE30B1C4F10701012088402843C5B246
:1015D00004E0C4F107010120884085434FF4807185
:1015E0000548FFF765FE052005F084F8601CC4B2CD
:1015F000082CD9DB284670BD000402401CB501212F
:10160000022001F055FE00208DF8040001208DF825
:1016100007004002009069460148FFF7D5FD1CBD58
:10162000000402401CB50121022001F041FE01200E
:101630008DF8040000208DF8060001208DF80700C9
:1016400003208DF805004FF40070009069460248B1
:10165000FFF7BAFD1CBD00000004024010B5FFF703
:10166000E1FF4FF400710C48FFF724FE4FF4807146
:101670000948FFF71FFE052005F03CF84FF4007104
:101680000548FFF715FE052005F034F84FF480718A
:101690000148FFF70DFE10BD0004024010B5FFF732
:1016A000C1FF4FF400710C48FFF702FE4FF4807148
:1016B0000948FFF7FDFD052005F01CF84FF4807187
:1016C0000548FFF7F7FD052005F014F84FF4007109
:1016D0000148FFF7EFFD10BD0004024010B5FFF711
:1016E0008DFF4FF480710F48FFF7E2FD052005F0F4
:1016F00001F84FF480710B48FFF7DCFD052004F082
:10170000F9FF4FF400710748FFF7C9FD08B1012444
:1017100000E000244FF480710248FFF7C9FD204625
:1017200010BD00000004024070B50546FFF77AFFC7
:101730004FF480711548FFF7BBFD052004F0DAFF78
:1017400000241FE0C4F1070101208840284028B18F
:101750004FF400710D48FFF7ADFD04E04FF4007148
:101760000A48FFF7A5FD4FF480710848FFF7A2FD76
:10177000052004F0BFFF4FF480710448FFF798FD87
:10178000601CC4B2082CDDDB70BD00000004024008
:1017900010B50121082001F08BFD0121102001F07E
:1017A00087FD01200E490871887140020860012000
:1017B000C87148710B48FFF707FD4FF40040084916
:1017C00008600948FFF700FD4FF400710548FFF776
:1017D00071FD4FF400410448FFF76CFD10BD00009F
:1017E000A00C0020000C02400010024010B50020A8
:1017F000044908714FF4004008600348FFF7E4FC17
:1018000010BD0000A00C00200010024010B5012007
:1018100003490871C00308600248FFF7D5FC10BDFA
:10182000A00C00200010024010B5FFF7EFFF4FF4AE
:1018300000410C48FFF73EFD4FF400710A48FFF7E6
:1018400039FD052004F056FF4FF400410548FFF72D
:101850002FFD052004F04EFF4FF400710248FFF702
:1018600027FD10BD00100240000C024010B5FFF72C
:10187000CDFF4FF400410C48FFF71AFD4FF4007103
:101880000A48FFF715FD052004F034FF4FF40071FE
:101890000648FFF70FFD052004F02CFF4FF4004130
:1018A0000148FFF707FD10BD00100240000C024088
:1018B00010B50024FFF79AFF4FF400710E48FFF7B0
:1018C000F7FC052004F016FF4FF400710A48FFF7FB
:1018D000F1FC052004F00EFF4FF400410748FFF72C
:1018E000DEFC08B1012400E000244FF4007102483E
:1018F000FFF7DEFC204610BD000C02400010024045
:1019000070B505460024FFF781FF4FF400711648BB
:10191000FFF7CEFC052004F0EDFE21E0C4F1070145
:1019200001208840284028B14FF400410F48FFF7BC
:10193000C1FC04E04FF400410C48FFF7B9FC4FF440
:1019400000710948FFF7B6FC052004F0D3FE4FF400
:1019500000710548FFF7ACFC052004F0CBFE641CC9
:10196000082CDBDB70BD0000000C024000100240C0
:1019700000B585B00121084601F09AFC01218803D9
:1019800001F0B6FC00208DF810008DF812004FF425
:101990008070039001208DF8130002208DF8110053
:1019A00003A91548FFF710FC0821002002F0F6F803
:1019B0004FF48070019001208DF80A0000208DF80E
:1019C00008000C208DF8090001A8FFF7B3FB1720D1
:1019D0008DF8000001208DF803008DF801008DF8CE
:1019E0000200684600F0C6FA0448006820F48070DF
:1019F0000249086005B000BD00000240003C014003
:101A00001CB50121112001F053FC00208DF80400C9
:101A100001208DF80700009069460548FFF7D4FBC8
:101A20001C20009069460348FFF7CEFB1CBD000058
:101A300000000240001002401CB50121302001F0DE
:101A400037FC01208DF8040000208DF806000120ED
:101A50008DF8070003208DF80500400200906946CC
:101A60000A48FFF7B1FB4FF4C040009069460848B0
:101A7000FFF7AAFB4FF4C0610448FFF71BFC4FF4CB
:101A8000C0410348FFF716FC1CBD000000140240D3
:101A90000010024070B586B005460E46142214A10F
:101AA00001A8FEF78DFB00240BE001A9095D203998
:101AB000CBB2E1002031C8B2124A022102F0E4F9AF
:101AC000641C082CF1DB09240DE001A9095D203913
:101AD000CBB2A4F10901C9002031C8B2094A0421DE
:101AE00002F0D2F9641C112CEFDB06B070BD0000CF
:101AF00057656C6C636F6D6520484F555345494F72
:101B0000530000000071000810B50446412C24D198
:101B100008210846FFF71BF83D21112003F070FE55
:101B20008621172003F06CFE7F21262003F068FE3B
:101B30001E212D2003F064FE00212C2003F060FE06
:101B40008D212A2003F05CFE3E212B2003F058FE5D
:101B5000022004F0CFFD00F0FBFF10BD70B52DEDAD
:101B6000048B04463C2000F01BF9A0F12A053B2021
:101B700000F016F945EA002020603E2000F010F940
:101B8000A0F114053D2000F00BF945EA002060604B
:101B9000402000F005F9A0F57855B63D3F2000F053
:101BA000FFF845EA0020A060442000F0F9F8851D08
:101BB000432000F0F5F845EA0020E060462000F000
:101BC000EFF8A0F11105452000F0EAF845EA002001
:101BD0002061482000F0E4F8451E472000F0E0F8BE
:101BE00045EA00206061422000F0DAF80646412014
:101BF00000F0D6F846EA00252846FEF7B2FC41EC94
:101C0000190B9FED090B53EC102BFEF73BFC41EC3D
:101C1000180B9FED070B53EC102BFEF71AFB41EC52
:101C2000100BBDEC048B70BD00000000004075403F
:101C3000A4703D0AD743424070B52DED048B044695
:101C40003B2000F087F8A0F12A052846FEF789FC22
:101C500041EC190B9FED3B0B53EC102BFEF712FCE4
:101C600041EC180BB0EE480AF0EE680A03F064FE8F
:101C700084ED000B3D2000F06DF8A0F1140528461E
:101C8000FEF76FFC41EC190B9FED2E0B53EC102B64
:101C9000FEF7F8FB41EC180BB0EE480AF0EE680ACC
:101CA00003F04AFE84ED020B3F2000F053F8A0F54C
:101CB0007855B63D2846FEF754FC41EC190B9FEDD4
:101CC000210B53EC102BFEF7DDFB41EC180BB0EEB3
:101CD000480AF0EE680A03F02FFE84ED040B94ED41
:101CE000001BB0EE410AF0EE610A9FED181B53ECA9
:101CF000112B51EC100BFEF753FBC4E9000194EDDE
:101D0000021BB0EE410AF0EE610A9FED101B53EC8E
:101D1000112B51EC100BFEF743FBC4E9020194EDCB
:101D2000041BB0EE410AF0EE610A9FED081B53EC74
:101D3000112B51EC100BFEF733FBC4E90401BDEC91
:101D4000048B70BD000000000000D040A79196CA2F
:101D5000DBA54C4070B50446611CC8B200F020F809
:101D60000546204600F01CF845EA002000B270BD90
:101D700010B504F003FE00216B2000F037F80721B6
:101D8000192000F033F806211A2000F02FF818214E
:101D90001B2000F02BF801211C2000F027F810BDBB
:101DA00070B5044604F078FED02004F0F3FE04F091
:101DB000C3FE00B116E0204604F0ECFE04F0BCFEC9
:101DC00000B10FE004F068FED12004F0E3FE04F05F
:101DD000B3FE00B106E004F0F1FD0546012004F079
:101DE0009BFD00BF04F082FE284670BD70B505461D
:101DF0000C4604F051FED02004F0CCFE04F09CFE12
:101E000000B10EE0284604F0C5FE04F095FE00B1D6
:101E100007E0204604F0BEFE04F08EFE00B100E0B4
:101E200000BF04F063FE70BD00BFFEE730B589B0AF
:101E300004460020069007900890002C4CD14620C4
:101E40008DF8180048480068642190FBF1F03030AC
:101E5000C0B28DF819004448006890FBF1F201FB14
:101E600012000A2190FBF1F03030C0B28DF81A0058
:101E70003D48006890FBF1F201FB12003030C0B227
:101E80008DF81B0039480068642190FBF1F0303078
:101E9000C0B28DF81C003548006890FBF1F201FBE0
:101EA00012000A2190FBF1F03030C0B28DF81D0015
:101EB0002E48006890FBF1F201FB12003030C0B2F6
:101EC0008DF81E0006A8FEF7BDF9C5B22A4606A980
:101ED0000020FEF765FD44E0012C42D1142101A849
:101EE000FEF787F9072201A90020FEF715FD05205E
:101EF00004F0CCFB9DF8040046282FD1142101A842
:101F0000FEF777F9072201A90020FEF705FD9DF8ED
:101F100005003038642110FB01F19DF806003038CF
:101F200000EB800001EB40019DF8070030380844C9
:101F30000D4908609DF808003038642110FB01F15C
:101F40009DF80900303800EB800001EB40019DF85E
:101F50000A00303808440549086002E00020FFF715
:101F600065FF09B030BD0000A40B0020A80B0020C5
:101F70007047000070B5002100230F22C4781CB305
:101F8000174C246804F4E064C4F5E064C4F307214A
:101F9000C1F10404E3B20A4144789C40E1B2847880
:101FA000144021430C07210E0E4C0578615504782E
:101FB00004F01F050124AC4005786D11AD0005F15A
:101FC000E025C5F8004109E0047804F01F0501246C
:101FD000AC40054D0678761145F8264070BD0000EE
:101FE0000CED00E000E400E080E100E00249014384
:101FF000024A1160704700000000FA050CED00E095
:1020000010B5102004F052FC04464FF4807004F028
:102010004DFC206000206060A0604FF48070E060A4
:10202000204610BD70B500240FE02146002000F0CE
:1020300024F8002505E04021002000F037F9681C55
:10204000C5B2802DF7DB601CC4B2082CEDDB70BD7F
:102050002DE9F04104460D4616463146204600F073
:102060000CF8274605E04021002000F01FF9781CFD
:10207000C7B2AF42F7DBBDE8F08170B504460D464C
:1020800005F1B001C8B2002100F010F9102141EAB9
:102090001410002100F00AF904F00F00002100F0F4
:1020A00005F970BD10B5FFF773FB0021AE2000F0FD
:1020B000FDF80021084600F0F9F80021102000F09A
:1020C000F5F80021402000F0F1F80021B02000F0E8
:1020D000EDF80021812000F0E9F80021FF2000F058
:1020E000E5F80021A12000F0E1F80021A62000F091
:1020F000DDF80021A82000F0D9F800213F2000F0F1
:10210000D5F80021C82000F0D1F80021D32000F03C
:10211000CDF80021084600F0C9F80021D52000F0D4
:10212000C5F80021802000F0C1F80021D82000F07F
:10213000BDF80021052000F0B9F80021D92000F0F9
:10214000B5F80021F12000F0B1F80021DA2000F00C
:10215000ADF80021122000F0A9F80021DB2000F0EA
:10216000A5F80021302000F0A1F800218D2000F01A
:102170009DF80021142000F099F80021262000F09D
:1021800095F80021084600F091F80021084600F07B
:102190008DF80021072000F089F80021072000F0C9
:1021A00085F80021084600F081F80021FF2000F0AA
:1021B0007DF800212E2000F079F80021D62000F0D3
:1021C00075F80021084600F071F80021AF2000F0FA
:1021D0006DF810BD70B504460D4600262946204610
:1021E00000F0B8F80A490860FEF770FD084A126866
:1021F0005168074A12681068FEF71AFE642004F05E
:1022000045FA0348FEF7CBFCFEF760FD304670BD93
:10221000800B002070B588B004460D4616461C2180
:1022200001A8FDF7E6FF002020600DA12046FDF784
:10223000EBFF29462046FDF7E7FF0AA12046FDF700
:10224000E3FF324608A101A803F062FB01A9204682
:10225000FDF7DAFF05A12046FDF7D6FF08B070BDF7
:102260002C3B00002C000000256400003B00000017
:1022700070B504460D461646324629462046FFF7FD
:10228000C9FF2146002000F09DF8074908600A4672
:1022900012685168044A12681068FEF7C9FD0248C6
:1022A000FEF77DFC70BD0000800B002070B5054678
:1022B0000C46FFF7B9FA7820FFF722FBFFF7F8FA90
:1022C00028B1FFF7D3FA10A003F012FB70BD20462F
:1022D000FFF716FBFFF7ECFA28B1FFF7C7FA10A0DB
:1022E00003F006FBF2E72846FFF70AFBFFF7E0FAE8
:1022F00028B1FFF7BBFA0FA003F0FAFAE6E7FFF701
:10230000B5FA00BFE2E70000B7A2CBCDC6F7BCFE2E
:10231000B5D8D6B7CAA7B0DC2E2E2E0D0A00000005
:10232000B7A2CBCDD7D6B5D8D6B7CAA7B0DC2E2E9C
:102330002E0D0A00B7A2CBCDCAFDBEDDCAA7B0DC08
:102340002E2E2E0D0A000000014908627047000081
:1023500000000E422DE9F04104460D46FFF750FE05
:1023600006461021304603F00FFA2046FDF76AFFBB
:1023700000F10B082846FDF765FF801C08EB0007FD
:102380003946304603F054FA0DA1304603F078FA8E
:102390000121304603F0F8F94021304603F0F4F90A
:1023A0008021304603F08BFA2146304603F068FA6C
:1023B0002946304603F064FA3046BDE8F08100005B
:1023C000454450002DE9F04104460D460027B8462B
:1023D0000026FFF715FE07462846FDF733FF0646A1
:1023E0008021384603F0D0F99CB12046FDF72AFF42
:1023F000001DB11C00EB01084146384603F018FAF5
:102400008021384603F0C0F92146384603F038FAF7
:1024100009E006F104084146384603F009FA0021B4
:10242000384603F0B1F90521384603F0ADF92946E5
:10243000384603F025FA3846BDE8F08110B590B073
:102440002FA191E80D00C9680CAC0DC40F9130A10B
:1024500091E80D00C96808AC0DC40B9130A30FCBF7
:1024600004AC0FC432A30FCB8DE80F0000240BE0A7
:102470000CA9095D2039CBB2E106080E304A0021D3
:1024800001F002FD601CC4B20CA8005D0028EFD171
:1024900000240BE008A9095D2039CBB2E106080E43
:1024A000274A022101F0F0FC601CC4B208A8005DBC
:1024B0000028EFD100240BE004A9095D2039CBB23C
:1024C000E106080E1E4A042101F0DEFC601CC4B2C5
:1024D00004A8005D0028EFD100240BE01DF80410D3
:1024E0002039CBB2E106080E154A062101F0CCFCDA
:1024F000601CC4B21DF804000028EFD110B010BD5C
:102500004C265220546F2043686F6F7365000000A3
:1025100050313A646973706C617920542648000028
:1025200050323A646973706C61792077696669002A
:1025300050333A646973706C6179204C45440000F3
:10254000007100082DE9F0410125002407E0E3B205
:102550002107080E8E4A002101F0C1FC641C052CE5
:1025600003DA8C4800780128F1D08B4806780125E1
:102570000BE00A2096FBF0F030B105EB850045003A
:102580000A2096FBF0F600E000E0F2E700BF834887
:102590000078012801D0BDE8F0817F4800780A2842
:1025A0000ADA002280216020FFF752FD01228021FB
:1025B0006020FFF74DFD18E07748007864280ADABC
:1025C000002280216820FFF743FD0122802168203E
:1025D000FFF73EFD09E0002280217020FFF738FD63
:1025E000012280217020FFF733FD00246A4806781D
:1025F00014E096FBF5F0103000F0FF08E1004831E0
:10260000C8B24346664A002101F03EFC641C96FBBA
:10261000F5F005FB10660A2095FBF0F5002EE8D1D9
:10262000002DE6D1E1004831C8B20523584A002107
:1026300001F055FC002407E0E3B22107080E594AD7
:10264000022101F04CFC641C052C03DA514800788F
:102650000128F1D05448077801250BE00A2097FBA8
:10266000F0F030B105EB850045000A2097FBF0F74C
:1026700000E000E0F2E700BF48480078012800D001
:1026800089E7494800780A280ADA0222802168206E
:10269000FFF7DEFC032280216820FFF7D9FC09E068
:1026A000022280217020FFF7D3FC032280217020BA
:1026B000FFF7CEFC00243C48077814E097FBF5F0C8
:1026C000103000F0FF08E1004831C8B24346344AF8
:1026D000022101F0D9FB641C97FBF5F005FB107794
:1026E0000A2095FBF0F5002FE8D1002DE6D1E1009E
:1026F0004831C8B205232A4A022101F0C5FB641CF7
:10270000E1004831C8B23223254A022101F0BCFB66
:10271000641CE1004831C8B22823214A022101F09B
:10272000B3FB1E480078012800D034E7002407E0FE
:10273000E3B22107080E1D4A042101F0D0FB641CFE
:10274000052C03DA134800780128F1D018480068F6
:102750001149097888420CDD0523144A04215020D0
:1027600001F0BDFB0623114A0421602001F0B7FBF4
:102770000BE007230D4A0421502001F0B0FB082391
:102780000A4A0421602001F0AAFB00BF03E7000011
:1027900010050020F20B0020A30B0020F10B0020FD
:1027A00000710008D0050020A20B00207006002058
:1027B000A40B002030B589B03BA207CA06AB07C303
:1027C0003CA103C9CDE904013CA30FCB8DE80F0068
:1027D00000240AE006A9095D2039CBB2E106080E03
:1027E0003A4A002101F050FB641C06A8005D002855
:1027F000F0D100240AE004A9095D2039CBB2E1063A
:10280000080E324A022101F03FFB641C04A8005D5F
:102810000028F0D12E48FDF715FD0C2802D300202A
:102820002B49C8722A48FDF70DFDC0002830C5B2FB
:10283000022280212846FFF70BFC2548FDF702FD08
:10284000C0002830C5B2032280212846FFF700FCD3
:102850000BE0611F1E4A515C2039CBB2E106080E25
:102860001A4A022101F010FB641C601F1849085C21
:102870000028EED100240AE01DF804102039CBB264
:10288000E106080E114A042101F0FEFA641C1DF84D
:1028900004000028F0D108230E4A0221702001F024
:1028A0001EFB09B030BD00004E616D653A205750E7
:1028B00000000000506173733A0000004F4B207419
:1028C0006F20636F6E6E656300000000007100088A
:1028D000BA0B00209007002010B53C480078C0F3E8
:1028E000001030B100233A4A1946184601F022FB85
:1028F00005E00023374A1946184601F01BFB334810
:102900000078C0F3401030B10023314A194620202E
:1029100001F010FB05E000232E4A1946202001F0AB
:1029200009FB2A480078C0F3801030B10023284A00
:102930001946402001F0FEFA05E00023254A194619
:10294000402001F0F7FA21480078C00930B1002397
:102950001F4A1946602001F0EDFA05E000231D4AE8
:102960001946602001F0E6FA2C231B4A04210820B6
:1029700001F08AFA1023184A0421184601F084FA5B
:102980002C23154A0421282001F07EFA1123124A33
:102990000421302001F078FA2C230F4A042148202A
:1029A00001F072FA12230C4A0421502001F06CFA53
:1029B0002C23094A0421682001F066FA1323064AF1
:1029C0000421702001F060FA10BD0000F30B00201C
:1029D00030090020B00800200071000810B58AB04E
:1029E0001C224DA103A8FDF7EBFB52A103C9CDE9C1
:1029F000010100240BE003A9095D2039CBB2E106F7
:102A0000080E4E4A002101F03FFA601CC4B2092CA6
:102A1000F1DB0A240DE003A9095D2039CBB2A4F152
:102A20000A01C906080E454A022101F02DFA601C70
:102A3000C4B2122CEFDBA4F10A00C4B21EE040487D
:102A40000078FF280CD1A4F1080101AA515C2039BB
:102A5000CBB2E106080E394A022101F015FA0BE06B
:102A6000A4F10801364A515C2039CBB2E106080EC8
:102A7000324A022101F008FA601CC4B20E2CDEDBDF
:102A800013240DE003A9095D2039CBB2A4F1130191
:102A9000C906080E294A042101F0F6F9601CC4B2E7
:102AA0001B2CEFDBA4F11300C4B20DE0A4F108016C
:102AB000244A515C2039CBB2E106080E1F4A04219A
:102AC00001F0E2F9601CC4B20E2CEFDB1E48007866
:102AD00080B9042280217020FFF7BAFA05228021F4
:102AE0007020FFF7B5FA0823184A0221702001F080
:102AF000F6F90FE0022280217020FFF7A9FA0322E5
:102B000080217020FFF7A4FA0823104A04217020C6
:102B100001F0E5F90AB010BD4D6F6469667920498E
:102B200043204F6C64706173733A204E6577706117
:102B300073733A0046464646464600000071000858
:102B4000AC0B0020B20B00209C0B00209007002053
:102B500010B5142000F090FE044604F0030018B9EC
:102B60000321142001F03AF810BDF0B587B00546F6
:102B7000002708210846FDF7EAFF00210D2002F09A
:102B80003FFE80210E20FDF7E2FF93208DF8080024
:102B900020208DF8090001A802AB022202A90090B2
:102BA0000C2000F051F8064686B9002407E002A880
:102BB000005D285502A8005D4740601CC4B2042C8B
:102BC000F5DB02A8005DB84200D0022680210E206D
:102BD00001F004F8304607B0F0BD2DE9F04387B0AE
:102BE00006460F46904699468DF808608DF80970A4
:102BF000002406E018F8041002AAA01C1154601C5E
:102C0000C4B2062CF6DB002407E019F8041002AA6F
:102C100004F108001154601CC4B2062CF5DB01A8B5
:102C200002AB0C2202A900900E2000F00DF8054620
:102C30002DB9082000F020FE00F0080000B90225A0
:102C4000284607B0BDE8F0832DE9FE4F06468846CA
:102C500091469A46DDF830B00220029000200190A3
:102C600000900C2E06D00E2E09D1122001901020BB
:102C7000009005E0772001903020009000E000BF38
:102C800000BF019840F08001022002F0B9FD8021D0
:102C90000420FDF75CFF0021012002F0B1FD80213E
:102CA0000A2000F09BFF002505E018F80510092018
:102CB00002F0A6FD6D1C4D45F7D33146012002F010
:102CC0009FFD0C2E03D180210D2000F087FF4FF4D3
:102CD0007A7500BF042000F0CFFD04466D1E35B1AB
:102CE00004F0010018B9009820400028F2D080219B
:102CF0000D20FDF72CFF95B3062000F0BDFD00F080
:102D00001B0068BB002002900198204000F00100E9
:102D100008B1012002900C2E24D10A2000F0ACFD55
:102D200004460C2000F0A8FD00F007072FB1601E3C
:102D300007EBC000CBF8000002E0E000CBF8000099
:102D400004B90124122C00DD1224002505E009201D
:102D500000F092FD0AF805006D1CA542F7D301E0D2
:102D60000220029080210C2000F038FF0021012079
:102D700002F046FD0298BDE8FE8FF0B587B005462B
:102D80000E4630208DF808008DF809500DF10A022A
:102D9000022102A8FDF778FE01A802AB042202A9D5
:102DA00000900C20FFF750FF074667B90198902864
:102DB00009D1002404E002A8005D3055601CC4B2B3
:102DC000102CF8DB00E00227384607B0F0BD70B5E4
:102DD00088B005460C4608210846FDF7B8FE0721D5
:102DE0000D2002F00DFD0321142000F0F7FE8DF8F8
:102DF0000C5002A803AB012203A900900C20FFF79E
:102E000023FF06464EB90298102806D19DF80C0003
:102E100020709DF80D00607000E00226304608B07A
:102E200070BD000010B54FF400612448FEF742FA6F
:102E3000012003F05FFC4FF400612048FEF738FAF0
:102E4000012003F057FC4FF400611C48FEF732FAF2
:102E5000012003F04FFC0F21012002F0D1FC09E01A
:102E600017480078FF2800DB10BD15480078401C8B
:102E700013490870012000F0FFFC00F0100000284A
:102E8000EED1012003F036FC3D21112002F0B8FC08
:102E90001E212D2002F0B4FC00212C2002F0B0FCF9
:102EA0008D212A2002F0ACFC3E212B2002F0A8FC50
:102EB0004021152002F0A4FC00BFD5E70008024025
:102EC000820C002070B588B0054693208DF80C0068
:102ED00070208DF80D0000208DF8120000240BE00A
:102EE000295D03AAA01C11549DF81200295D4840D9
:102EF0008DF81200601CC4B2042CF1DB0DF113023A
:102F0000072103A8FDF7C0FD08210846FDF71FFEB5
:102F100002A803AB092203A900900C20FFF794FE3E
:102F2000064626B90298182801D1002600E002269C
:102F3000304608B070BD7047F8B504460E461746D7
:102F4000002580495220FFF742FF7F49087008465C
:102F5000007830B9022008707C48FFF706FE7A49F5
:102F600008707948007800287BD1022076490870E3
:102F70007648007876490978884218D173484078B5
:102F800073494978884212D17048807870498978AD
:102F900088420CD16D48C0786D49C978884206D105
:102FA00001206C4908706CA002F0A2FC87E0674821
:102FB00000786F490978884218D1644840786C4994
:102FC0004978884212D16148807869498978884275
:102FD0000CD15E48C0786649C978884206D1012084
:102FE0006449087064A002F083FC68E057480078E8
:102FF00067490978884218D154484078644949782B
:10300000884212D1514880786149897888420CD130
:103010004E48C0785E49C978884206D101205D4992
:1030200008705DA002F064FC49E0484800786049FF
:10303000097888421AD1454840785D4949788842E4
:1030400014D1424880785A49897888420ED13F4845
:10305000C0785749C978884208D10120554908707D
:1030600000E031E054A002F043FC28E0374800784B
:1030700057490978884218D13448407854494978EA
:10308000884212D1314880785149897888420CD1E0
:103090002E48C0784E49C978884206D101204D4952
:1030A00008704DA002F024FC09E02848C078009088
:1030B00026488378427801784DA002F019FC234815
:1030C000FFF700FF204908701F48007868B9022008
:1030D0001D490870032000EB8400C1B21B4B494A14
:1030E0006020FFF77AFD184908701748007868B922
:1030F00001204549087002201349087006EB84013D
:10310000C8B24249FFF739FE0F4908700E480078EF
:10311000B0B902200C4908703DA002F0E9FB00257F
:1031200006E03A48415D3CA002F0E2FB681CC5B2F3
:10313000102DF6DB0DA002F0DBFB642003F0A6FAF5
:10314000F8BD00006D0C0020800C00206F0C0020EA
:10315000890C0020730C00200D0A546865205573FB
:1031600065722069733A636172645F300D0A000012
:103170008D0C0020850C00200D0A546865205573C5
:1031800065722069733A636172645F310D0A0000F1
:10319000910C0020860C00200D0A546865205573A0
:1031A00065722069733A636172645F320D0A0000D0
:1031B000950C0020870C00200D0A5468652055737B
:1031C00065722069733A636172645F330D0A0000AF
:1031D000990C0020880C00200D0A54686520557356
:1031E00065722069733A636172645F340D0A00008E
:1031F00049443D7B25642C25642C25642C25647D65
:103200000D0A0000740C0020830C0020C00E00206A
:10321000524649443D00000025782C200000000063
:1032200010B500F013F84FF400610648FEF742F8BD
:1032300080210548FEF73EF8FFF7F4FD4120FEF738
:1032400063FC10BD00080240000C02401CB50121C7
:10325000042000F02DF80121082000F029F80120B9
:103260008DF8040000208DF80600C0200090012099
:103270008DF8070002208DF8050069460A48FDF721
:10328000A3FF4FF40460009069460848FDF79CFFD7
:1032900000208DF804004FF48070009069460348C8
:1032A000FDF792FF1CBD0000000C02400008024028
:1032B00029B1064A12680243044B1A6004E0034A2B
:1032C00012688243014B1A60704700003038024098
:1032D00029B1064A12680243044B1A6004E0034A0B
:1032E00012688243014B1A60704700004038024068
:1032F00029B1064A12680243044B1A6004E0034AEB
:1033000012688243014B1A60704700004438024043
:10331000F0B5002100220024022500260223324FAE
:103320003F6807F00C0121B1042905D0082937D1E5
:1033300005E02E4F076036E02D4F076033E02A4F3F
:103340003F1F3F68C7F38056274F3F1F3F6807F076
:103350003F036EB1264FB7FBF3F7DFF88CC0ACF13B
:10336000040CDCF800C0CCF3881C07FB0CF40CE068
:103370001E4FB7FBF3F7DFF870C0ACF1040CDCF8BC
:1033800000C0CCF3881C07FB0CF4174F3F1F3F68AD
:10339000C7F301477F1C7D00B4FBF5F7076002E02F
:1033A000124F076000BF00BF0F4F3F6807F0F001EA
:1033B0000909104F7A5C0768D74047600A4F3F6899
:1033C00007F4E051890A0B4F7A5C4768D740876061
:1033D000054F3F6807F46041490B064F7A5C476828
:1033E000D740C760F0BD0000083802400024F40058
:1033F00000127A000000002010B5014600220023D0
:1034000000204A11012A02D10A4C236808E0022A4E
:1034100003D1084C7034236802E0064C74342368EE
:1034200001F01F02012494401C400CB1012000E077
:10343000002010BD003802400021094A11701170AF
:10344000012802D0042808D103E00121044A1170A8
:1034500004E00521024A117000E000BF00BF704780
:103460007038024001490860704700003C0E474236
:10347000002100F44072B2F5407F08D1094A11687A
:1034800021F4F811084A02401143064A1160054A26
:1034900068321268C0F30B031A43024B68331A6098
:1034A0007047000008380240FFFCFF0F014600BFD4
:1034B000080900EB8000420001F00F001044C0B288
:1034C00070470146002204E0501CC2B2A1F10A007C
:1034D000C1B20A29F8DA100741EA1060704700000B
:1034E00008B50022009200200021104A126802F064
:1034F0004002CAB9421E0D4B1A6000BF0B4A126847
:1035000002F04001009A521C0092009AB2F5803FEE
:1035100001D00029F2D0054A126802F040020AB137
:10352000012002E0002000E0012008BD0C2800403E
:103530000348006820F080000149086070470000DF
:103540000C28004070B506460C4600250E48006861
:103550000E4900EA0105280CE070C5F304206070F4
:1035600005F03F00A070C5F3423020705EB9E078EE
:10357000FFF79CFFE0706078FFF798FF6070A0781D
:10358000FFF794FFA07070BD042800403FFFFF00CC
:1035900070B506460C4600250F4800680F4900EA42
:1035A0000105C5F305402070C5F30620607005F0E5
:1035B0007F00A07005F48000000CE0705EB92078F8
:1035C000FFF774FF20706078FFF770FF6070A078DD
:1035D000FFF76CFFA07070BD002800407F7F7F0068
:1035E00030B504460025CA201549086053200860FC
:1035F000FFF776FF00B91DE011481C38006820F085
:1036000040000F491C3908600846006821680843DB
:103610000B491C3908600A491439A068086008463B
:103620000068A18840EA0140054914390860FFF7A5
:103630007FFF0125FF2002490860284630BD0000B9
:103640002428004008B5014600200090044800905E
:10365000009800EB810000900098006808BD000011
:10366000502800402DE9F04105460C460026002771
:103670004DB9607800F01000102804D1607820F077
:1036800010000A30607005B908E06078FFF70EFF9F
:103690000646A078FFF70AFF064600BF55B1E0785E
:1036A0000004617840EA0120A1780843217840EACB
:1036B000413611E0E078FFF704FF4FEA00486078F8
:1036C000FFF7FFFE48EA0028A078FFF7FAFE48EA75
:1036D0000008207848EA4036CA2012490860532082
:1036E0000860FFF7FDFE08B9002714E00E483040DF
:1036F0000C4920390860FFF71BFF0A481C38006896
:1037000000F0200030B900F079F808B9002702E095
:10371000012700E00127FF20024908603846BDE884
:10372000F0810000242800403FFFFF002DE9F04118
:1037300005460C46002600274DB92E48006800F0CB
:10374000400000B102E00020E07000BF0DE0294819
:10375000006800F0400020B12078FFF7A7FE064681
:1037600002E00020E07000BF00BF55B120780004E7
:10377000617840EA0120A1780843E17840EA0146F7
:1037800011E02078FFF79DFE4FEA00486078FFF7D0
:1037900098FE48EA0028A078FFF793FE48EA000860
:1037A000E07848EA0046CA2012491C3108605320DC
:1037B0000860FFF795FE08B9002713E00E48304077
:1037C0000C4908390860FFF7B3FE0A48006800F0AA
:1037D000200030B900F012F808B9002702E00127F4
:1037E00000E00127FF2003491C3108603846BDE88E
:1037F000F0810000082800407F7F7F0008B500228C
:10380000009200200021CA22134B1A6053221A6032
:10381000114A183A126822F0A0020F4B183B1A60A6
:1038200000BF0D4A183A126802F02001009A521C9B
:103830000092009AB2F5003F01D00029F1D0064A6B
:10384000183A126802F020020AB1012000E00020BC
:10385000FF22014B1A6008BD2428004008B5002251
:103860000092044A0092009A02EB80020092009AB1
:10387000116008BD5028004070B504467E2000EA63
:10388000440040F0800580210748FDF711FD2846DF
:1038900000F056F900F02AF9064680210248FDF7AB
:1038A00009FD304670BD0000000C024070B50446B2
:1038B0000025002601203949087140020860384877
:1038C000FDF782FC4FF400713548FDF7F1FC142040
:1038D00002F0DCFE4FF400713148FDF7EBFC1E20D6
:1038E00002F008FF00202D4908714FF400700860B5
:1038F0002B48FDF769FC06E0B6F5FA7F02DD4FF0D4
:10390000FF3070BD761C4FF400712548FDF7C7FCF1
:103910000128F1D008E06D1C112D02DD4FF0FF30C1
:10392000EFE7052002F0E6FE4FF400711C48FDF7BA
:10393000B6FC0028EFD000254FF400711848FDF7C1
:10394000AEFC012811D108E06D1C6E2D02DD4FF098
:10395000FF30D6E7012002F0CDFE4FF40071104891
:10396000FDF79DFC0128EFD002E04FF0FF30C8E7E3
:10397000204600F017F810B16FF00100C1E7207881
:1039800061780844A1780844E178084421798842A4
:1039900001D10020B5E76FF00200B2E7580C00201B
:1039A000001802402DE9F0410546002700240026BA
:1039B0004FF400712548FDF772FC002843D100BF89
:1039C0003DE000202855002736E009E0761C322E25
:1039D00003DD4FF0FF30BDE8F081012002F08AFEE8
:1039E0004FF400711948FDF75AFC0028EED000266C
:1039F0001E2002F07FFE4FF400711448FDF74FFCCB
:103A0000012806D1285DC7F1070201219140084332
:103A1000285508E0761C462E02DD6FF00100DAE73B
:103A2000012002F067FE4FF400710848FDF737FCF3
:103A30000128EFD000267F1C082FC6DB641C052C54
:103A4000BFDB0020C7E76FF00200C4E700180240A8
:103A500010B501210807FFF73BFC0120FEF774FCBD
:103A60000020FFF7EFFD4AF2A001884237D0012085
:103A7000FFF7E2FC00BF4120FFF7BEFC0028FAD0B0
:103A80004FF48070FFF7F4FC0120FFF7EBFCFFF729
:103A9000B5FE7F201249486000200860FF20886042
:103AA0000846FFF79DFD19200E49C8700720487091
:103AB0002920887001200870FFF7D4FD40200A49B2
:103AC000C8701420087052204870002088700120AF
:103AD000FFF72CFE4AF2A0010020FFF7BFFE10BD49
:103AE000D00E0020A80C0020AC0C002070B50025E2
:103AF0001DE06006040E40210F48FDF7D9FB14209D
:103B000002F0F8FD4FF480710C48FDF7C8FB012866
:103B100001D144F00104142002F0ECFD40210648DC
:103B2000FDF7C8FB142002F0E5FD681CC5B2082DA6
:103B3000DFDB204670BD0000000C024000080240A0
:103B400070B50446002520E004F0800020B140213B
:103B50000F48FDF7AFFB03E040210D48FDF7A8FB40
:103B6000142002F0C7FD40210A48FDF7A1FB1420F4
:103B700002F0C0FD40210748FDF79CFB142002F035
:103B8000B9FD6006040E681CC5B2082DDCDB70BDF3
:103B900000080240000C02407047000030B50022CF
:103BA0008B071C0F0F2303FA04F20B4B8C1053F8F6
:103BB00024309343084C8D1044F8253023468C1054
:103BC00053F824308C07240F00FA04F42343024CEA
:103BD0008D1044F8253030BD0838014070B50546D9
:103BE0000C462846FFF748FE064646EA04012846EA
:103BF00001F006FE70BD00000CB5002001900090A1
:103C00003448006840F480303249086000BF3148D1
:103C1000006800F4003000900198401C019000986A
:103C200018B90198B0F5A04FF1D12A48006800F406
:103C3000003010B10120009001E0002000900098B9
:103C4000012846D123484030006840F08050214987
:103C5000403108602048006840F440401E49086038
:103C60001C48083000681B49083108600846006895
:103C700040F4004008600846006840F4A050086026
:103C80001648091F0860081F006840F08070091F6F
:103C9000086000BF0F48006800F000700028F9D0ED
:103CA00040F205700E4908600A480830006820F0AC
:103CB00003000849083108600846006840F0020027
:103CC000086000BF03480830006800F00C000828B6
:103CD000F8D10CBD00380240007000400854400785
:103CE000003C02402DE9F0410025002407E0E3B24A
:103CF0002107080E5F4A002100F0F1F8641C022C35
:103D0000F5DB042408E0E3B2A11E0907080E594AB6
:103D1000002100F0E4F8641C082CF4DB5648066827
:103D200001250BE00A2096FBF0F030B105EB850091
:103D300045000A2096FBF0F600E000E0F2E700BF45
:103D400000244D48066814E096FBF5F0103000F0B2
:103D5000FF08E1005831C8B24346484A002100F04C
:103D600093F8641C96FBF5F005FB10660A2095FBA2
:103D7000F0F5002EE8D1002DE6D141480078D8B901
:103D8000022280216820FEF763F903228021682047
:103D9000FEF75EF9062280217020FEF759F907220E
:103DA00080217020FEF754F9E1005831C8B2082391
:103DB000304A002100F093F8022408E0E3B2A11E8B
:103DC0000907080E2B4A022100F089F8641C082C10
:103DD000F4DB2C48076801250BE00A2097FBF0F084
:103DE00030B105EB850045000A2097FBF0F700E0B5
:103DF00000E0F2E700BF00242248076814E097FBC8
:103E0000F5F0103000F0FF08E1005831C8B2434629
:103E10001A4A022100F038F8641C97FBF5F005FB04
:103E200010770A2095FBF0F5002FE8D1002DE6D1A0
:103E300013480078D8B1002280216820FEF708F9E5
:103E4000012280216820FEF703F9062280217020DC
:103E5000FEF7FEF8072280217020FEF7F9F8E10056
:103E60005831C8B20823034A022100F038F8BDE8EF
:103E7000F081000090070020A40B002000710008D2
:103E80009C0B0020A80B00202DE9F04180460F4636
:103E900015461E4639464046FEF7EFF8002407E077
:103EA000102101FB0641685C4021FEF7FFF9641C0C
:103EB000082CF5DB781CC1B24046FEF7DEF8002482
:103EC00009E004F10801102202FB0611685C4021A0
:103ED000FEF7ECF9641C082CF3DBBDE8F0812DE95A
:103EE000F04180460F4615461E4639464046FEF7CD
:103EF000C4F8002407E0202101FB0641685C402152
:103F0000FEF7D4F9641C102CF5DB781CC1B24046D6
:103F1000FEF7B3F8002409E004F11001202202FBAF
:103F20000611685C4021FEF7C1F9641C102CF3DB1C
:103F3000BDE8F0812DE9F04180460F4615461E464A
:103F400039464046FEF799F8002407E0802101FB3E
:103F50000641685C4021FEF7A9F9641C202CF5DBC2
:103F6000781CC1B24046FEF788F8002409E004F14D
:103F70002001802202FB0611685C4021FEF796F9C1
:103F8000641C202CF3DBB81CC1B24046FEF775F868
:103F9000002409E004F14001802202FB0611685C64
:103FA0004021FEF783F9641C202CF3DBF81CC1B21E
:103FB0004046FEF762F8002409E004F16001802227
:103FC00002FB0611685C4021FEF770F9641C202C8E
:103FD000F3DBBDE8F081042808D14FF0E021096946
:103FE00041F004014FF0E022116107E04FF0E021C1
:103FF000096921F004014FF0E02211617047704718
:1040000010B51548006840F4700013490860134863
:10401000006840F001001149086000200F49083194
:1040200008600E4800680E4908400C4908600D48B9
:10403000091D0860081F006820F48020091F08601F
:10404000002006490C310860FFF7D6FD4FF00060F4
:1040500001498039086010BD88ED00E00038024059
:10406000FFFFF6FE1030002410B56FF00400FFF7DC
:10407000B2FF15200349087045F208200249088064
:1040800010BD0000780B00207A0B00202F49098812
:1040900001F00101002957D02C49091F098801F0BE
:1040A0000101002950D02949098821F00101274A3E
:1040B000118027490988B1F5806F0EDBBFF34F8F60
:1040C0002449096801F4E061234A1143091D214A8A
:1040D0001160BFF34F8F00BFFEE72049097871BB25
:1040E00000202AE000EB40011D4A02EB81014988D3
:1040F00009B300EB400102EB81014988491E00EB46
:104100004002174B03EB8202518000EB40011A463C
:1041100002EB8101498871B900EB400102EB81019A
:10412000898800EB400203EB82025180012100EB01
:10413000400203F82210411CC8B20828D2DB04490F
:104140000988491C024A1180704700001004004091
:104150009A0B00200CED00E00000FA05980B0020FF
:10416000F80B00207FB505460C4601210220FFF721
:10417000AFF8681E0190601E80B2ADF8000000200C
:10418000ADF80800ADF802006946114800F046F8A5
:1041900001210F4800F02AF8012211460C4800F0D6
:1041A00034F801210A4800F015F81D208DF80C00A4
:1041B00001208DF80D008DF80E008DF80F0003A87A
:1041C000FDF7D8FE0121024800F013F87FBD000082
:1041D0000004004021B1028842F08002028004E025
:1041E00002884FF67F731A4002807047CA430282EA
:1041F000704721B1028842F00102028004E0028887
:104200004FF6FE731A40028070471AB183890B4340
:10421000838102E083898B43838170470022028877
:10422000184B98420ED0184B98420BD0B0F1804FEB
:1042300008D0164B984205D0154B984202D0154B2A
:10424000984204D14FF68F731A404B881A43124B91
:10425000984207D0114B984204D04FF6FF431A40C2
:104260000B891A4302804B68C3620B880385054B98
:10427000984202D0044B984201D18B7A03860123E5
:1042800083827047000001400004014000040040A8
:1042900000080040000C00400010004000140040E6
:1042A00010B50120214908702148FFF7FFFA0020CE
:1042B0001E4908701E480078642802DD00201C4951
:1042C00008701B488078642802DD00201849887037
:1042D0000120164908701648007816490978884266
:1042E0000CD0134800781349087013A001F000FBAC
:1042F0001048027813A11648FDF7BAFF0C488078E1
:104300001449097888420CD009488078114908700E
:1043100011A001F0EDFA0F48027813A10C48FDF747
:10432000A7FF00200149087010BD0000980B002075
:104330009D0B0020A20B002048756D69646974799B
:104340000D0A000048756D69646974790000000009
:104350003C0E0020A30B002054656D7065726174E3
:104360007572650D0A00000054656D7065726174A8
:104370007572650010B50024FC480078A0B30121D7
:10438000FB48FCF78CFF38B94FF40071F948FCF793
:1043900093FF0020F54908700421F748FCF77FFFE0
:1043A00038B94FF48061F348FCF786FF0020EF49ED
:1043B00008700821F048FCF772FF38B94FF400513B
:1043C000ED48FCF779FF0020E84908701021EA4821
:1043D000FCF765FF20BB4FF48041E748FCF76CFF1A
:1043E0000020E24908701BE0FFE70121E048FCF7EC
:1043F00056FF012814D10421DF48FCF750FF0128A3
:104400000ED10821DC48FCF74AFF012808D1102111
:10441000D948FCF744FF012802D1FF20D349087096
:10442000D648006800286FD0D448006868286CD04F
:1044300012DC38286AD008DC022868D0102867D03F
:10444000182870D0222853D1D4E04A286CD05A289A
:104450006BD06228F7D14CE0B02867D008DC9028F8
:104460007BD098287AD0A22809D0A828EBD1A0E147
:10447000C22874D0E02873D0E228E4D180E0C0489C
:104480000078022806D1BF48FBF7DCFEBD49312287
:104490000A542DE0BA480078032805D14FF4007182
:1044A000B448FCF709FF23E0B548007804281FD181
:1044B000B548007870B9002400E0641C062C03DACB
:1044C000B248005D2028F8D1062C11D03120AF4928
:1044D00008550DE0002400E0641C062C03DAAC480B
:1044E000005D2028F8D1062C02D03120A8490855BB
:1044F0000CE3A348007802280BD1A248FBF7A2FEE8
:10450000A04932220A543AE005E3E2E153E2ABE08B
:104510002BE29B480078032809D14FF4806195482D
:10452000FCF7CAFE2BE002E2D2E2ABE2D2E1944811
:104530000078042823D19448007890B9002400E042
:10454000641C062C03DA9148005D2028F8D1062C63
:1045500015D032208D49085511E05AE189E1B3E0C8
:10456000E2E0002400E0641C062C03DA8848005DC9
:104570002028F8D1062C02D0322085490855C5E202
:104580007F480078022806D17E48FBF75BFE7D4914
:1045900033220A542DE07A480078032805D14FF4DD
:1045A00000517548FCF788FE23E075480078042820
:1045B0001FD17548007870B9002400E0641C062CF7
:1045C00003DA7248005D2028F8D1062C11D0332080
:1045D0006E4908550DE0002400E0641C062C03DA47
:1045E0006B48005D2028F8D1062C02D033206849A2
:1045F00008558BE262480078022806D16148FBF733
:1046000021FE604934220A542DE05D4800780328D9
:1046100005D14FF480415848FCF74EFE23E058483E
:10462000007804281FD15848007870B9002400E0B1
:10463000641C062C03DA5548005D2028F8D1062CAE
:1046400011D03420514908550DE0002400E0641CCD
:10465000062C03DA4E48005D2028F8D1062C02D043
:1046600034204B49085551E245480078022806D1CC
:104670004448FBF7E7FD434935220A5423E040480C
:10468000007804281FD14048007870B9002400E069
:10469000641C062C03DA3D48005D2028F8D1062C66
:1046A00011D03520394908550DE0002400E0641C84
:1046B000062C03DA3648005D2028F8D1062C02D0FB
:1046C00035203349085521E22D480078022806D1CB
:1046D0002C48FBF7B7FD2B4936220A5423E0284823
:1046E000007804281FD12848007870B9002400E021
:1046F000641C062C03DA2548005D2028F8D1062C1E
:1047000011D03620214908550DE0002400E0641C3A
:10471000062C03DA1E48005D2028F8D1062C02D0B2
:1047200036201B490855F1E115480078022806D1CA
:104730001448FBF787FD134937220A5438E0104824
:104740000078042834D11048007870B9002400E0C3
:10475000641C062C03DA0D48005D2028F8D1062CD5
:1047600026D037200949085522E013E0F40B002039
:10477000000002400014024000100240680C0020BB
:10478000F20B0020BA0B00209C0B0020AC0B002089
:10479000B20B0020002400E0641C062C03DAE14880
:1047A000005D2028F8D1062C02D03720DD490855BD
:1047B000ACE1DD480078022806D1DC48FBF742FD79
:1047C000DA4938220A5423E0D748007804281FD158
:1047D000D748007870B9002400E0641C062C03DA86
:1047E000D448005D2028F8D1062C11D03820D149BA
:1047F00008550DE0002400E0641C062C03DAC948CB
:10480000005D2028F8D1062C02D03820C549085573
:104810007CE1C5480078022806D1C448FBF712FDA8
:10482000C24939220A5423E0BF48007804281FD126
:10483000BF48007870B9002400E0641C062C03DA3D
:10484000BC48005D2028F8D1062C11D03920B94988
:1048500008550DE0002400E0641C062C03DAB14882
:10486000005D2028F8D1062C02D03920AD4908552A
:104870004CE1AD480078022806D1AC48FBF7E2FCD9
:10488000AA4930220A5423E0A748007804281FD1FF
:10489000A748007870B9002400E0641C062C03DAF5
:1048A000A448005D2028F8D1062C11D03020A14961
:1048B00008550DE0002400E0641C062C03DA99483A
:1048C000005D2028F8D1062C02D0302095490855EB
:1048D0001CE11BE194480078022807D19348FBF7BC
:1048E000B1FC401E914900220A541FE08E48007816
:1048F00004281BD18E48007860B9052400E0641EAE
:10490000002C03DD8B48005D2028F8D02020894949
:1049100008550BE0052400E0641E002C03DD8148EF
:10492000005D2028F8D020207E490855EEE07E4822
:10493000007804280AD17E490978481C00EBD07120
:104940004910A0EB41017A4A11700DE076480078D9
:10495000052809D176490978481C00EBD071491027
:10496000A0EB4101724A1170D0E073480078002832
:104970000EDB7148007805280ADA6F480078401E7F
:10498000052190FBF1F201FB12006B49087011E068
:104990006948007805280DD16548007828B967482E
:1049A0000068401E6549086004E065480068401ED4
:1049B00063490860AAE05C48007802283BD10120E6
:1049C000604908706048006820F480705E490860A3
:1049D00056495E48FBF718FC5DA15C48FBF714FCE8
:1049E00007E00A2C00DD0AE0641C4FF4FA7001F0C5
:1049F0004DFE58A15548FCF7CBF90028F1D100BF76
:104A0000002407E00A2C00DD0AE0641C4FF4FA7071
:104A100001F03CFE53A154A0FCF7BAF90028F1D1F3
:104A200000BF5B4801685B480068FDF7D3FB0020CE
:104A30004449087025E03C480078012803D105204E
:104A40003D4908701DE038480078052819D101203B
:104A50003C4908703A480068C2B24FA15348FDF77C
:104A600007FC0020FDF7E2F934480068C2B250A10B
:104A70004E48FDF7FDFB00203249087001202E4909
:104A8000087043E02C48007800280EDB2A480078A4
:104A900005280ADA28480078401C052190FBF1F22D
:104AA00001FB12002449087011E023480078052812
:104AB0000DD11F48007828B920480068401C1F49C4
:104AC000086004E01E480068401C1D4908601DE0A5
:104AD0001548007804280AD115490978481E00EBCA
:104AE000D0714910A0EB4101114A11700DE00E4840
:104AF0000078052809D10E490978481E00EBD071CD
:104B00004910A0EB41010A4A117000BF00BF00200C
:104B10002D49086005E00C48006840F480700A499F
:104B2000086010BDB20B0020F20B0020BA0B002071
:104B30009C0B0020AC0B0020F10B0020A40B0020EC
:104B4000A80B0020980B0020003C0140C60B002061
:104B5000220D0A005749464920434F4E4E454354C3
:104B6000000000004F4B000041542B434950535468
:104B70004152543D22544350222C223138332E329C
:104B800033302E34302E3339222C3837360D0A008C
:104B9000740B0020700B002048756D69646974798E
:104BA0005F5374616E646172640000003C0E00200B
:104BB00054656D70657261747572655F5374616E72
:104BC0006461726400000000680C002010B51E488B
:104BD0000078012807D141021C48FCF769FB00203E
:104BE000194908700AE018480078022806D14102E5
:104BF0001648FCF75DFB0020134908701448007844
:104C0000FF2809DA01201349087013A20321FEF7D7
:104C100093F900200F4908700B480078012807D14C
:104C200041020A48FCF744FB0020074908700AE0EB
:104C300005480078022806D141020448FCF738FBF9
:104C400000200149087010BD830C002000140240B0
:104C5000820C0020980B00203132333435000000E4
:104C600010B501203D4908703D48007870B93D48B5
:104C700000783B490978884205D03948007839499D
:104C80000870FDF7CFF9FDF7D9FB5DE034480078F7
:104C900001280ED13348007831490978884205D07F
:104CA0002F4800782F490870FDF7BCF9FDF74AFC42
:104CB0004AE02B48007802280ED12A48007828497B
:104CC0000978884205D02648007826490870FDF703
:104CD000A9F9FDF76FFD37E02148007803280ED1D0
:104CE000204800781E490978884205D01C48007881
:104CF0001C490870FDF796F9FDF7EEFD24E0184811
:104D0000007804280ED117480078154909788842A0
:104D100005D01348007813490870FDF783F9FDF7B3
:104D20005DFE11E00E48007805280DD10D48007891
:104D30000B490978884205D009480078094908706C
:104D4000FDF770F9FEF7CEFF0548007808B1FBF7D4
:104D500033FF00200149087010BD0000980B0020AF
:104D6000F10B0020F20B002010B52DED028B86B068
:104D70000120794908706846FCF75EFF77480078A3
:104D8000002845D19FED760B53EC102B764890ED23
:104D9000000B51EC100BFBF75CFA41EC180B9DED8E
:104DA000001BB0EE410AF0EE610A53EC102BFBF74A
:104DB00003FC17D99FED6A0B53EC102B6A4890ED5A
:104DC000000B51EC100BFBF7E5FA41EC180B9DEDD5
:104DD000001BB0EE410AF0EE610A53EC102BFBF71A
:104DE00003FC14D89DED000B5F4880ED000B5FA025
:104DF00000F07EFD5C4890ED000B51EC100BFBF7D2
:104E0000C1FBC4B222465CA15D48FDF731FA92E0D5
:104E100052480078012845D19FED510B53EC102BDF
:104E2000584890ED000B51EC100BFBF712FA41ECD7
:104E3000180B9DED021BB0EE410AF0EE610A53EC37
:104E4000102BFBF7B9FB17D99FED450B53EC102B3B
:104E50004C4890ED000B51EC100BFBF79BFA41EC2A
:104E6000180B9DED021BB0EE410AF0EE610A53EC07
:104E7000102BFBF7B9FB5ED89DED020B414880ED8E
:104E8000000B41A000F034FD3E4890ED000B51ECCA
:104E9000100BFBF777FBC4B222463EA13848FDF762
:104EA000E7F948E02D480078022844D19FED2C0B0B
:104EB00053EC102B394890ED000B51EC100BFBF725
:104EC000C8F941EC180B9DED041BB0EE410AF0EE61
:104ED000610A53EC102BFBF76FFB17D99FED200BEA
:104EE00053EC102B2D4890ED000B51EC100BFBF701
:104EF00051FA41EC180B9DED041BB0EE410AF0EEA7
:104F0000610A53EC102BFBF76FFB14D89DED040BDB
:104F1000224880ED000B22A000F0EAFC1F4890ED33
:104F2000000B51EC100BFBF72DFBC4B222461FA166
:104F30001348FDF79DF909480078401C032190FBB8
:104F4000F1F201FB120005490870002002490870C7
:104F500006B0BDEC028B10BD980B0020B80B0020F2
:104F60000000000000001440D80B0020585F416E84
:104F7000676C650D0A000000585F416E676C650044
:104F80003C0E0020E00B0020595F416E676C650D00
:104F90000A000000595F416E676C6500E80B002055
:104FA0005A5F416E676C650D0A0000005A5F416EE2
:104FB000676C650010B50120054908700548016857
:104FC00005480068FDF706F900200149087010BD8A
:104FD000980B0020740B0020700B002010B569485E
:104FE000007800F0F000674908706748006800F436
:104FF000007020B10846007840F001000870624857
:10500000006800F4806028B15E48007840F002003B
:105010005C4908705D48406900F4005028B1594867
:10502000007840F00400574908705848406900F47F
:10503000804028B15348007840F00800514908707A
:105040000120534908704F48007800F001004D4995
:105050000978C1F3001188421BD04A48007800F05B
:10506000010058B10A224BA14C48FDF701F945480F
:10507000007840F01000434908700AE0642245A11E
:105080004648FDF7F5F83F48007820F010003D490C
:1050900008703C48007800F002003A490978022282
:1050A00002EA211188421BD03648007800F0020045
:1050B00058B10A223AA13948FDF7DAF831480078A8
:1050C00040F020002F4908700AE0642234A13348E0
:1050D000FDF7CEF82B48007820F020002949087011
:1050E0002848007800F0040026490978042202EAE2
:1050F000211188421BD02348007800F0040058B1E9
:105100000A2229A12548FDF7B3F81E48007840F08F
:1051100040001C4908700AE0642223A11F48FDF7E3
:10512000A7F81848007820F0400016490870154884
:10513000007800F0080013490978082202EA2111DA
:1051400088421BD00F48007800F0080058B10A22AE
:1051500017A11248FDF78CF80A48007840F080004B
:10516000084908700AE0642211A10C48FDF780F894
:105170000448007820F080000249087000200449AB
:10518000087010BDF30B0020141402400010024000
:10519000980B00204C454430000000003C0E0020DD
:1051A0004C454431000000004C45443200000000F2
:1051B0004C4544330000000010B588B01C2101A804
:1051C000FBF717F801207B49087001A8FCF7C6FC23
:1051D000002078490870002416E001A850F8241037
:1051E000754850F824000A38814208DB01A850F8BD
:1051F0002410714850F824000A30814202DD012059
:105200006D498861601CC4B2032C03DA6A48806966
:105210000128E2D1032416E001A850F824106648C2
:1052200050F824000A38814208DB01A850F8241005
:10523000614850F824000A30814202DD01205E49B5
:10524000C861601CC4B2062C03DA5B48C06901283F
:10525000E2D15948806901284AD15848007800288D
:1052600046D10120534908705348019900680A3813
:10527000814205DB5048019900680A30814208DD0F
:105280004D4901980860084602784DA14E48FCF748
:10529000EFFF4948029940680A38814205DB4648D9
:1052A000029940680A30814208DD4349029848600B
:1052B0000846027945A14448FCF7DAFF3E480399C5
:1052C00080680A38814205DB3B48039980680A30D0
:1052D000814208DD3849039888600846027A3DA17A
:1052E0003948FCF7C5FF002032490870324988610F
:1052F0003148C069012849D130480078012845D19A
:105300002C4908702C480499C0680A38814205DB92
:1053100029480499C0680A30814208DD264904986A
:10532000C8600846027B2DA12748FCF7A1FF224850
:10533000059900690A38814205DB1F480599006913
:105340000A30814208DD1C49059808610846027C44
:1053500024A11D48FCF78CFF1748069940690A38BC
:10536000814205DB1448069940690A30814208DD14
:105370001149069848610846027D1CA11248FCF7B5
:1053800077FF00200B4908700B49C8610B48007873
:1053900018B901200949087002E000200749087087
:1053A00014490020FEF7F4F813490020FEF7CAF86C
:1053B00008B010BD980B0020A00E0020F00B0020BC
:1053C000414343454C5F58003C0E00204143434558
:1053D0004C5F5900414343454C5F5A004759524F77
:1053E0005F5800004759524F5F5900004759524FCC
:1053F0005F5A0000AC0C0020A80C002010B500245F
:1054000016E004EB44000C4911F8200070B104EBE5
:105410004401094A02EB810188688047002004EBBF
:105420004401054A02F8210004490880601CC4B206
:10543000082CE6DB10BD0000F80B00209A0B0020C2
:1054400010B56348006890BB6248008800F02000F7
:1054500000282BD060480078802802D300205E49C5
:1054600008705C48001D00885C495B4A12788854CB
:10547000084659490978405C45280BD156480078C0
:10548000042807DB56A15548FAF7CAFE10B10120DF
:105490005549087050480078401C4F49087000BFBB
:1054A0004C48008800F020000028F9D18EE0FFE78A
:1054B000474800680128F9D14648001D00884B493B
:1054C0000870084601784A4802780078401C484B2A
:1054D000187048488154454800787B2802D1012043
:1054E000454908704448007801286FD13F48017849
:1054F000424802780078401C404B18704048815464
:105500003A4800787D2803D0184600787F285DDB74
:105510000020394908703BA13948FAF781FE28B1CB
:105520004FF400713948FBF7C3FE09E038A1344855
:10553000FAF776FE20B14FF400713448FBF7BAFE5B
:1055400035A12F48FAF76CFE28B14FF480612F483F
:10555000FBF7AEFE09E032A12948FAF761FE20B15F
:105560004FF480612948FBF7A5FE2FA12448FAF7E4
:1055700057FE28B14FF400512D48FBF799FE09E082
:105580002CA11F48FAF74CFE20B14FF400512848D7
:10559000FBF790FE29A11A48FAF742FE28B14FF412
:1055A00080412348FBF784FE09E026A11448FAF75E
:1055B00037FE20B14FF480411D48FBF77BFE802170
:1055C0000F48FAF716FE00200C49087010BD0000C5
:1055D000900B0020004800407C0B0020BC0C0020F9
:1055E000434C4F53450000007E0B0020940B0020DD
:1055F000950B00203C0D0020960B0020970B0020FF
:10560000BC0D00204C454430310000000014024025
:105610004C454430300000004C454431310000001E
:105620004C454431300000004C454432310000000C
:10563000001002404C454432300000004C454433D9
:10564000310000004C4544333000000021B1828914
:1056500042F40052828104E082894DF6FF731A40C1
:1056600082817047F0B50346002400260025002003
:1056700040F66A17B94200D100BF1846C1F3421480
:1056800001F01F06012707FA06F5012C01D10C30A5
:1056900004E0022C01D1103000E014301AB1076888
:1056A0002F43076002E00768AF430760F0BD0000CA
:1056B0002DE9FF4705460E460024A14600BFA0463F
:1056C000B08900B100BF2C8A24F44054F088044310
:1056D0002C82AC8941F20C608443B0883189084344
:1056E000718908430443AC81AC8A24F44074B089C6
:1056F0000443AC826846FDF70BFE2048854202D089
:105700001F48854202D1DDF80C9001E0DDF80890D9
:10571000A88900F4004040B109EBC90000EB091072
:1057200031684900B0FBF1F707E009EBC90000EB75
:10573000091031688900B0FBF1F76420B7FBF0F085
:1057400004012009642101FB1078A88900F40040BD
:1057500040B1322000EBC800B0FBF1F000F00700D0
:10576000044308E0322000EB08106421B0FBF1F0A4
:1057700000F00F0004432C81BDE8FF8700100140BA
:105780000014014000BFFEE770B504460D46A16855
:1057900009B9012100E00021084600F075FF012150
:1057A0002046FBF7A7F910B14FF0FF3070BDD4E9E8
:1057B000000145546068401C60600020F6E770B549
:1057C00004460E461546A16809B9012100E00021F2
:1057D000084600F059FF29462046FBF78BF910B127
:1057E0004FF0FF3070BDD4E9001288182A463146C8
:1057F000FAF7E6FC6068284460600020F2E70000E9
:1058000070B504460D467E2000EA44068021074814
:10581000FBF74EFD3046FEF793F92846FEF790F968
:1058200080210248FBF746FD70BD0000000C0240DD
:1058300070B502460C4621460023002596680EB935
:10584000012600E00026304600F01EFF00BF01F0F8
:105850007F05C90909B145F080055668701C506084
:10586000106885555B1C09B1052BF0DB052B01D0B9
:10587000012600E00026304600F006FF002070BD43
:1058800070B504460D460026A16809B9012100E063
:105890000021084600F0F8FE2846FAF7D3FC86B24D
:1058A0003146204600F00BF828B9324629462046FA
:1058B000FFF785FF08B1012070BD0020FCE770B53F
:1058C00005460C46A96809B9012100E000210846F7
:1058D00000F0DAFE210A2846FFF756FF20B9E1B2B0
:1058E0002846FFF751FF08B1012070BD0020FCE7FA
:1058F0000FB4054B10B503A9044A029800F028FB29
:1059000010BC5DF814FB00003D6700088C0B002004
:105910000FB4084B10B504A902AA039800F018FBB5
:10592000044602A9002000F0AAFE204610BC5DF843
:1059300014FB00007F66000810B5B94A2DED020B7C
:105940002DED0C8B82B00F9921F000409FEDB6CB6E
:1059500090422CDBA0F140530E9AA3F17F631A43CF
:105960000FD0B349884202DC16D10E98A0B19DED4C
:105970000E0B02B0BDEC0C8B02B0BDE8104000F085
:1059800003BA0029C1BF9FEDAC0B02B0BDEC0C8B7C
:1059900002B0C8BF10BD16E0012000F021FA02B02D
:1059A000BDEC0C8B02B0BDE8104000F0F9B9A44A80
:1059B0009FEDA59B9FEDA6AB90425EDAA6499FEDB9
:1059C000A8CB814208DBB0EE4C0AF0EE6C0A02B0C4
:1059D000BDEC0C8B02B010BD9DED0E0B53EC102BEB
:1059E00051EC100BFAF7DCFC41EC180B9E48062139
:1059F000B0EE480AF0EE680A784400F049F953EC3A
:105A0000182B51EC100BFAF7CBFC41EC1B0B974811
:105A1000B0EE480AF0EE680A0421784400F038F944
:105A200053EC182B51EC100BFAF7BAFC53EC192B72
:105A3000FAF70FFC41EC100B51EC1B0B53EC102B45
:105A4000FAF720FD41EC100B53EC102B9DED0E0BE3
:105A500051EC100BFAF7A4FC53EC1A2BFAF79DFC4F
:105A60009DED0E1B53EC112BFAF797FC53EC1C2BFE
:105A7000FAF793FC41EC100BA9E79FED7D8B9FEDAE
:105A80007EBB9DED0E0B002953EC192B51EC100B36
:105A900052DAFAF7DEFB53EC182BFAF781FC41ECF3
:105AA000180B77480621B0EE480AF0EE680A7844F1
:105AB00000F0EEF853EC182B51EC100BFAF770FCD9
:105AC00041EC1D0B6F48B0EE480AF0EE680A042165
:105AD000784400F0DDF853EC182B51EC100BFAF77A
